:1000000023EF07F00000000000EF00F00000000008
:0A0010000000000000000000F3D71C
:0E001C00026A016A006A086A036A000E120096
:0E002A00ACB202D00000FCD754C0ADFF1200F3
:0C00380072B201D0FDD754C073FF12005B
:100044000B840BAE2DEF00F0010E036E026A016A01
:0A005400006A0A360232FF0E1200A5
:08005E000AAE029E000E120022
:100066000B820BAE3DEF00F0036802680168006882
:080076000A360232FF0E1200EF
:10007E000134083609360450085E0550D8A0053CF8
:10008E00095E003601360F0E0C6E01340836093645
:10009E00045000A006D0085E0550D8A0053C095EAD
:1000AE0005D008260550D8B0053C09260036013685
:1000BE000C2EEBD700B006D0045008260550D8B051
:0800CE00053C092600001200A8
:1000D6000B800BAE77EF00F0026A0AAEFF0E026EDF
:0C00E600016E006E0A360232FF0E12009E
:0A00F200210E0D6E0D2EFED7120038
:0800FC000B6A0B86FF0E1200D7
:1001040053C001F0010E006E015004E0003600906F
:10011400FF0FFBD700C089FF5BD08C808C828C845E
:100124008C868C888C8A8C9C8C9E71D08C908C82D2
:100134008C848C968C988C9A8C9C8C9E68D08C80A9
:100144008C828C948C868C888C9A8C8C8C9E5FD0C0
:100154008C808C828C848C868C988C9A8C8C8C9ED3
:1001640056D08C908C828C848C968C988C8A8C8CB7
:100174008C9E4DD08C808C928C848C868C988C8AAE
:100184008C8C8C9E44D08C808C928C848C868C88B5
:100194008C8A8C8C8C9E3BD08C808C828C848C96AC
:1001A4008C988C9A8C9C8C9E32D08C808C828C8483
:1001B4008C868C888C8A8C8C8C9E29D08C808C82AA
:1001C4008C848C868C988C8A8C8C8C9E20D01FD0AE
:1001D4005250000AA2E05250010AA8E05250020A0A
:1001E400AEE05250030AB4E05250040ABAE052504E
:1001F400050AC0E05250060AC6E05250070ACCE095
:100204005250080AD2E05250090AD8E0E0D712004E
:100214000CB04CEF01F00CA2F2EF01F00E6A000EEC
:10022400026463EF01F0F00E0214D8A42EEF01F083
:10023400023A01380F0B02260138F00B016E003828
:100244000F0B01260038F00B006E08380F0B002648
:100254000838F00B086E0E84D89002BE47EF01F008
:1002640008360036013602360E2A02BE47EF01F088
:1002740008360036013602360E2A02BE47EF01F078
:1002840008360036013602360E2A0E500364E8EFB3
:1002940001F0035E0BBC08AEEDEF01F0D880800ED8
:1002A40008640030000E002201220222D8A0EDEFE3
:1002B40001F0023201320032034AF2EF01F0EDEFB5
:1002C40001F001C002F000C001F008C000F0086AAB
:1002D400000E0E8602649AEF01F0F00E0214D8A408
:1002E40082EF01F0023A01380F0B02260138F00BBD
:1002F400016E00380F0B01260038F00B006E0E84DF
:10030400D89002BE47EF01F00036013602360E2ABD
:1003140002BE47EF01F00036013602360E2A02BE55
:1003240047EF01F00036013602360E2A47EF01F09E
:1003340001C002F000C001F0006A000E0E960E88A3
:100344000264C7EF01F0F00E0214D8A4B2EF01F07A
:10035400023A01380F0B02260138F00B016E0E84AD
:10036400D89002BE47EF01F0013602360E2A02BED3
:1003740047EF01F0013602360E2A02BE47EF01F0C4
:10038400013602360E2A47EF01F001C002F0016A7D
:10039400000E0E860264F7EF01F0F00E0214D8A4EA
:1003A400D6EF01F0023A0E84D89002BE47EF01F076
:1003B40002360E2A02BE47EF01F002360E2A02BEB2
:1003C40047EF01F002360E2A47EF01F0010E0C6EE2
:1003D40037DEFAEF01F0020E0C6E3FDEFAEF01F0A9
:1003E400040E0C6E3EDEFAEF01F0080E0C6E14DE05
:0203F4001200F5
:0603F600000000001200EF
:1003FC000B6A0A6A096A00500402F4CF09F0F3CFC1
:10040C0008F001500502F4CF0BF0F3CF0AF00050C6
:10041C000502F3500926F4500A22E86A0B22015017
:10042C000402F3500926F4500A22E86A0B2208C091
:10043C0000F009C001F00AC002F00BC003F012007A
:10044C00F250026EF29E0500FF6A0150FE6E0050E3
:08045C00FD6E02BEF28E1200DB
:10046400020E0C6E490E0D6E0D2EFED70C2EFCD70F
:0604740000000000120070
:0E047A00330E0D6E0D2EFED700000000120096
:10048800C7B409D01F0EC514016E0150000A03E15C
:0A049800010E006E01D0006A120090
:1004A2000450000A08E10550000A05E1FF0E006E43
:1004B2007F0E016E57D00D6A096A086A015000105A
:1004C200D8B4000C015005180A6E0ABE0D1E0B6A44
:1004D20005AE05D0041E051E042AD8B4052A01AEB5
:1004E20005D0001E011E002AD8B4012A01500510B1
:1004F2000A6E0ABE10D0C2DD0BB020D00DAE000CC9
:10050200001E011E002AD8B4012A081E091E082A4C
:10051200D8B4092A000C05AE0DD001BE07D0015097
:10052200096E0050086E016A006AE8D7016A006A23
:10053200002A000C011E001E0B2ADDD7082AD8B49F
:10054200092A0450085CD8A4D9D70550095CD8A45C
:10055200D5D7096A086A002AD8B4012A01AECED7D3
:060562000000FF0C120076
:100568000C6A0E6A0250D8A4CDEF02F001C002F066
:1005780000C001F0006A0E860250D8A4CDEF02F048
:1005880001C002F0016A0E960E880250D8B4DFEF5F
:1005980002F00E50035ED8A4D8A0E4EF02F0D89081
:1005A80002BEE9EF02F0003601360236032ED4EF20
:1005B80002F0E4EF02F0010E0C6E2CDDECEF02F01D
:1005C800020E0C6E3BDDECEF02F0040E0C6E43DD08
:0205D80012000F
:1005DA002A0E3F6E000E406E540E416E000E426EA1
:1005EA00FF0E336EFF0E346E000E356E000E366E41
:1005FA00FF0E376EFF0E386E000E396E000E3A6E21
:10060A00FF0E3B6EFF0E3C6E000E3D6E000E3E6E00
:10061A00AC8A900EAB6E948E949C9EAA03D0AECFF9
:06062A0000F0FBD71200F6
:100630000900F5CFE6FF0006FBE10106F9E1120033
:100640004DC001F0010E006E015004E00036009034
:10065000FF0FFBD700C04FF0001E4BC0E9FF4CC09E
:10066000EAFF0050EF16120EE9260050EF16FADEF0
:100670004F50EF12120EE95E00DF4F50EF144E6E36
:100680004E50000A000ED8A4010E4E6EEBDE4EC096
:0406900000F0120064
:100694004DC001F0010E006E015004E000360090E0
:1006A400FF0FFBD700C051F0001C506E4F6A4BC0C7
:1006B400E9FF4CC0EAFF4E6A4E50070820E3505051
:1006C400EF16120EE9265050EF1693DE5150EF123A
:1006D40090DE120EE95E5150EF14006E0CE04EC035
:1006E40001F0010E006E015004E000360090FF0F8F
:1006F400FBD700504F12FBDCFADC4E2ADDD74FC08B
:0407040000F01200EF
:10070800880E276E040E286E000E296E000E2A6EC3
:10071800BA0E1B6E0D0E1C6E000E1D6E000E1E6EA8
:10072800040E1F6E080E206E000E216E000E226E43
:10073800720E236E080E246E4B0E256E000E266E6A
:10074800FC0E2F6E0C0E306E4B0E316E000E326E9C
:10075800780E436E0A0E446E000E456E000E466E0D
:10076800949894968B988B9694889486C79EC79CE9
:06077800380EC66E1200EF
:10077E0000C008F00B6A0C6A9E0E036E0A6A026ACB
:0C078E00016A006A020E0C6E3EDD1200D3
:10079A004DC001F0010E006E015004E000360090D9
:1007AA00FF0FFBD700C051F0001E00C050F04BC035
:1007BA00E9FF4CC0EAFF0050EF16120EE9264F6A15
:1007CA004F50070815E34FC000F04EC001F000502B
:1007DA0004E00132019EFF0FFBD75050EF1601A033
:1007EA0002D05150EF1244DE5150EF124F2AE8D78F
:0A07FA00120EE95E79DC78DC1200D3
:1008040017C04BF018C04CF019C04DF01AC04EF090
:10081400C582C5A21DD01750181019101A1017E060
:100824004B504C104D104E100CE149C0E1FF4AC032
:10083400E2FF060EE66E47C000F048C001F004DE99
:1008440007D0010E4B5E000E4C5A4D5A4E5AE1D75A
:02085400120090
:10085600020E0B6E040E0C6EBA0E0D6E0D2EFED72A
:0C0866000C2EFCD70B2EFAD7000012005D
:1008720017C04DF018C04EF019C04FF01AC050F01A
:100882009E96C5869EB61DD01750181019101A10C4
:1008920017E04D504E104F1050100CE149C0E1FFCF
:1008A2004AC0E2FF030EE66E47C000F048C001F006
:1008B200CCDD07D0010E4D5E000E4E5A4F5A505AF3
:1008C200E1D7C9CF4CF04B50000A02E1C58A01D0F2
:1008D200C59A9E96C58817C04DF018C04EF019C033
:1008E2004FF01AC050F09EB61DD0175018101910B4
:1008F2001A1017E04D504E104F1050100CE149C025
:10090200E1FF4AC0E2FF030EE66E47C000F048C0B6
:1009120001F09BDD07D0010E4D5E000E4E5A4F5A7C
:0A092200505AE1D74CC000F012005B
:10092C004E6A4BC0E9FF4CC0EAFFEECF4DF04D5084
:10093C00000A0EE04DC054F015EC00F04E2A4E505B
:10094C004B24E96E000E4C20EA6EEECF4DF0EFD743
:02095C00120087
:10095E00E80E046E030E056E4BC000F04CC001F0A5
:10096E0099DD000E016EE80E046E030E056E3FDD7E
:10097E0000504B5C4F6E01504C58506E4FC04BF0B8
:10098E0050C04CF0640E046E000E056E4FC000F0A9
:10099E0050C001F07FDD00C04EF0640E0002F3CFB8
:1009AE0000F0F4CF01F000504F5E0150505A4FC08E
:1009BE004BF050C04CF00A0E046E000E056E4FC088
:1009CE0000F050C001F066DD00C04DF00A0E0002CE
:1009DE00F3CF00F0F4CF01F000504F5C006E0150E9
:1009EE005058016E00C04BF001C04CF000C052F0E8
:1009FE00536A82EC00F0030E0C6E970E0D6E0D2EE8
:100A0E00FED70C2EFCD7000000004DC052F0010E98
:100A1E00536E82EC00F0030E0C6E970E0D6E0D2EC3
:100A2E00FED70C2EFCD7000000004EC052F0020E76
:100A3E00536E82EC00F0030E0C6E970E0D6E0D2EA3
:100A4E00FED70C2EFCD700000000526A030E536E28
:100A5E0082EC00F0030E0C6E970E0D6E0D2EFED76F
:0A0A6E000C2EFCD70000000012005F
:040A7800C58412001F
:100A7C000B6A0C6A0A6A0350D8B488EF05F0028E30
:100A8C008E0E035E03BE50EF05F0D8B450EF05F0A8
:100A9C008CEF05F0036C080E035CD8A067EF05F033
:100AAC00036E013602C001F0026A080E035CD8A086
:100ABC0067EF05F00136016A0350D8A4D89071EFA6
:100ACC0005F00350D8B471EF05F0D8900232013222
:100ADC00032E6BEF05F00BBC01A07EEF05F0D8A048
:100AEC007EEF05F0012AD8B4022A02BE9BEF05F076
:100AFC000AAEA1EF05F0021E011E012AD8B4022A8B
:100B0C00A1EF05F0026A016AA1EF05F00B800BAEB4
:100B1C00A5EF05F0026A0AAEA5EF05F0FF0E026E16
:100B2C00016E0A360232A5EF05F0010E0C6E6BEC6D
:100B3C0000F0A7EF05F0000E0C6EA7EF05F0FF0E0E
:0C0B4C000C6E0150006E0250016E120091
:100B58000450000A12E10550000A0FE10650000A8D
:100B68000CE10750000A09E1FF0E006EFF0E016E4E
:100B78007F0E026EFF0E036EA8D0086A096A07503E
:100B8800D8B457EF06F00350D8B45CEF06F0025023
:100B980006180A6E028E068E0E6A02C008F001C0A0
:100BA8000CF000C00DF004500D5E0550D8A0053CB7
:100BB8000C5E0650D8A0063C085E086A0C6A0D6AEE
:100BC800D8A0EEEF05F0D890023201320032083298
:100BD800010E0E6E0750035ED8A0FBEF05F07E0EE7
:100BE8000E240326D8B061EF06F001EF06F07E0E62
:100BF8000E240326D8A066EF06F0180E0B6E0D36ED
:100C08000C3608360036013602360E360450005EC1
:100C18000550D8A0053C015E0650D8A0063C025EEF
:100C280006340E120EA01CEF06F00D8027EF06F01A
:100C3800045000260550D8B0053C01260650D8B00F
:100C4800062802260D900B2E03EF06F04DEF06F056
:100C5800D8900036013602360E360450005E055034
:100C6800D8A0053C015E0650D8A0063C025E0634BA
:100C78000E10010B0D26D8B00C2AD8B4082AD8A417
:100C88004DEF06F008320C320D32032AD8B461EF6A
:100C980006F00AAE089E0850026E0C50016E0D5008
:100CA800006E69EF06F0010E7EEC00F069EF06F0C9
:100CB800020E0EEC00F069EF06F0040E33EC00F0C3
:0C0CC80069EF06F0080E22EC00F01200AC
:100CD4000050086E0150006E016A026A036A0B6AD2
:100CE4000C6A960E036E0A6A00C001F008C000F098
:080CF400086A026A37DC1200F5
:100CFC009E964BC0C9FF17C04CF018C04DF019C0E0
:100D0C004EF01AC04FF0C7A420D01750181019106D
:100D1C001A101AE04C504D104E104F100FE149C0F4
:100D2C00E1FF4AC0E2FF040EE66E47C000F048C087
:100D3C0001F026EC02F0010E006E38D0010E4C5E74
:100D4C00000E4D5A4E5A4F5ADED717C04CF018C0F1
:100D5C004DF019C04EF01AC04FF09EB620D017506F
:100D6C00181019101A101AE04C504D104E104F104C
:100D7C000FE149C0E1FF4AC0E2FF040EE66E47C036
:100D8C0000F048C001F026EC02F0010E006E0ED00F
:100D9C00010E4C5E000E4D5A4E5A4F5ADED7C5BC52
:0E0DAC0002D0006A03D0C584020E006E120051
:100DBA0017C04DF018C04EF019C04FF01AC050F0CD
:100DCA004B6A4C6A4C50120802E14B508E0808E3F9
:100DDA0044EC02F0005201E003D04B4A4C2AF2D70D
:100DEA00120E4C5C02E18F0E4B5C03E37B0E006E2D
:100DFA0024D0C580C5A020D01750181019101A1079
:100E0A001AE04D504E104F1050100FE149C0E1FF4B
:100E1A004AC0E2FF050EE66E47C000F048C001F086
:100E2A0026EC02F0010E006E08D0010E4D5E000E97
:0C0E3A004E5A4F5A505ADED7006A120080
:100E4600DBEC07F0926A956A96840F01386B396B72
:100E56003A6B3C6B140EC86E54DCB886B06ACF0E83
:100E6600AF6EAC84EDEC02F00D0E546E15EC00F096
:100E76000A0E546E15EC00F0840E4B6E0F0E4C6E7F
:100E8600020E4D6E20EC03F0840E4B6E0F0E4C6E70
:100E9600020E4D6ECC0E4E6E7DDC840E4B6E0F0E2A
:100EA6004C6E020E4D6E440E4E6E74DC840E4B6E0E
:100EB6000F0E4C6E020E4D6E20EC03F0840E4B6E40
:100EC6000F0E4C6E020E4D6ECC0E4E6E63DC840E13
:100ED6004B6E0F0E4C6E020E4D6EBE0E4E6E5ADCF3
:100EE600840E4B6E0F0E4C6E020E4D6E4AEC03F0E6
:100EF60043DC660E046E660E056E660E066E7F0E8B
:100F0600076E27DEB8DD00C02BF001C02CF0840E82
:100F16004B6E0F0E4C6E020E4D6E4AEC03F000C087
:100F260003F0026A2B500224006E2C500320016E3F
:100F3600CEDE660E046E660E056E660E066E7F0EBD
:100F4600076E07DE98DD00C02BF001C02CF032DF03
:100F5600A20E4B6ED0DE020E4B6ECDDE2BC04BF0DA
:100F6600CADE87DD75DC26DFA20E4B6EC4DE020EFE
:100F76004B6EC1DE44DCA30E4B6EBDDE4B6A76DCE7
:100F860000C02DF0000E2E6E74DD2DC04BF02EC06D
:100F96004CF0E2DC2DC054F015EC00F0150E4B6E53
:0A0FA600000E4C6EC0DC68D7FFD7C8
:100FB60010EE15F0060E006E010E016EB00EF66E06
:0E0FC6000F0EF76E000EF86E18EC03F012001E
:020FB0000A0035
:040FB200000000003B
:020000040030CA
:0D000100231F3CFFBF81FF0FC00FE00F4029
:00000001FF
