:10000000F1EF07F00000000000EF00F0000000003A
:0A0010000000000000000000F3D71C
:10001C000134083609360450085E0550D8A0053C5A
:10002C00095E003601360F0E0C6E013408360936A7
:10003C00045000A006D0085E0550D8A0053C095E0F
:10004C0005D008260550D8B0053C092600360136E7
:10005C000C2EEBD700B006D0045008260550D8B0B3
:08006C00053C0926000012000A
:100074000B840BAE45EF00F0010E036E026A016AB9
:0A008400006A0A360232FF0E120075
:0C008E0072B201D0FDD75AC073FF1200FF
:0E009A00ACB202D00000FCD75AC0ADFF12007D
:1000A800086A096A100E0C6E0134083609360450C5
:1000B800085E0550D8A0053C095ED8B007D00450AA
:1000C80008260550D8B0053C0926D89000360136D8
:0600D8000C2EEAD7120015
:1000DE000B820BAE79EF00F00368026801680068CE
:0800EE000A360232FF0E120077
:0E00F600026A016A006A086A036A000E1200BC
:080104000AAE029E000E12007B
:10010C00F250026EF29E0500FF6A0150FE6E005026
:08011C00FD6E02BEF28E12001E
:10012400C7B409D01F0EC514016E0150000A03E1C3
:0A013400010E006E01D0006A1200F7
:10013E000B800BAEABEF00F0026A0AAEFF0E026E42
:0C014E00016E006E0A360232FF0E120035
:10015A000CB0EFEF00F00CA295EF01F00E6A000E62
:10016A00026406EF01F0F00E0214D8A4D1EF00F0F9
:10017A00023A01380F0B02260138F00B016E0038E3
:10018A000F0B01260038F00B006E08380F0B002603
:10019A000838F00B086E0E84D89002BEEAEF00F021
:1001AA0008360036013602360E2A02BEEAEF00F0A1
:1001BA0008360036013602360E2A02BEEAEF00F091
:1001CA0008360036013602360E2A0E5003648BEFCB
:1001DA0001F0035E0BBC08AE90EF01F0D880800EF0
:1001EA0008640030000E002201220222D8A090EFFB
:1001FA0001F0023201320032034A95EF01F090EF2A
:10020A0001F001C002F000C001F008C000F0086A65
:10021A00000E0E8602643DEF01F0F00E0214D8A41F
:10022A0025EF01F0023A01380F0B02260138F00BD4
:10023A00016E00380F0B01260038F00B006E0E8499
:10024A00D89002BEEAEF00F00036013602360E2AD6
:10025A0002BEEAEF00F00036013602360E2A02BE6E
:10026A00EAEF00F00036013602360E2AEAEF00F015
:10027A0001C002F000C001F0006A000E0E960E885E
:10028A0002646AEF01F0F00E0214D8A455EF01F0EF
:10029A00023A01380F0B02260138F00B016E0E8468
:1002AA00D89002BEEAEF00F0013602360E2A02BEEC
:1002BA00EAEF00F0013602360E2A02BEEAEF00F03B
:1002CA00013602360E2AEAEF00F001C002F0016A96
:1002DA00000E0E8602649AEF01F0F00E0214D8A402
:1002EA0079EF01F0023A0E84D89002BEEAEF00F0EC
:1002FA0002360E2A02BEEAEF00F002360E2A02BECB
:10030A00EAEF00F002360E2AEAEF00F0010E0C6E58
:10031A00ACDE9DEF01F0020E0C6EEFDE9DEF01F0F8
:10032A00040E0C6ED7DE9DEF01F0080E0C6EDEDEB9
:02033A001200AF
:06033C00000000001200A9
:080342000B6A0B86FF0E12008E
:10034A0054C001F0010E006E015004E00036009026
:10035A00FF0FFBD700C089FF5BD08C808C828C8416
:10036A008C868C888C8A8C9C8C9E71D08C908C828A
:10037A008C848C968C988C9A8C9C8C9E68D08C8061
:10038A008C828C948C868C888C9A8C8C8C9E5FD078
:10039A008C808C828C848C868C988C9A8C8C8C9E8B
:1003AA0056D08C908C828C848C968C988C8A8C8C6F
:1003BA008C9E4DD08C808C928C848C868C988C8A66
:1003CA008C8C8C9E44D08C808C928C848C868C886D
:1003DA008C8A8C8C8C9E3BD08C808C828C848C9664
:1003EA008C988C9A8C9C8C9E32D08C808C828C843B
:1003FA008C868C888C8A8C8C8C9E29D08C808C8262
:10040A008C848C868C988C8A8C8C8C9E20D01FD065
:10041A005350000AA2E05350010AA8E05350020ABE
:10042A00AEE05350030AB4E05350040ABAE0535002
:10043A00050AC0E05350060AC6E05350070ACCE04A
:10044A005350080AD2E05350090AD8E0E0D7120004
:10045A000450000A08E10550000A05E1FF0E006E8B
:10046A007F0E016E57D00D6A096A086A01500010A2
:10047A00D8B4000C015005180A6E0ABE0D1E0B6A8C
:10048A0005AE05D0041E051E042AD8B4052A01AEFD
:10049A0005D0001E011E002AD8B4012A01500510F9
:1004AA000A6E0ABE10D0B5DD0BB020D00DAE000C1E
:1004BA00001E011E002AD8B4012A081E091E082A95
:1004CA00D8B4092A000C05AE0DD001BE07D00150E0
:1004DA00096E0050086E016A006AE8D7016A006A6C
:1004EA00002A000C011E001E0B2ADDD7082AD8B4E8
:1004FA00092A0450085CD8A4D9D70550095CD8A4A5
:10050A00D5D7096A086A002AD8B4012A01AECED71B
:06051A000000FF0C1200BE
:10052000020E0C6E490E0D6E0D2EFED70C2EFCD752
:06053000000000001200B3
:100536000B6A0A6A096A00500402F4CF09F0F3CF85
:1005460008F001500502F4CF0BF0F3CF0AF000508B
:100556000502F3500926F4500A22E86A0B220150DC
:100566000402F3500926F4500A22E86A0B2208C056
:1005760000F009C001F00AC002F00BC003F012003F
:0A058600210E0D6E0D2EFED712009F
:0E059000330E0D6E0D2EFED70000000012007F
:10059E00576A050E575C0AE257505524E16E000E5D
:1005AE005620E26E200EE66E572AF3D7575055248A
:1005BE00E16E000E5620E26EE66A5706575055243D
:1005CE00586E000E5620596E0A0E046E000E056E01
:1005DE0053C000F054C001F060DD08C000F009C047
:1005EE0001F0300E002658C0E1FF59C0E2FF00C0F6
:1005FE00E6FF0A0E046E000E056E53C000F054C0E6
:10060E0001F04BDD00C053F001C054F0000E011894
:10061E0002E1000E001801E102D05706CFD71200FA
:10062E000C6A0E6A0250D8A430EF03F001C002F03B
:10063E0000C001F0006A0E860250D8A430EF03F01D
:10064E0001C002F0016A0E960E880250D8B442EF35
:10065E0003F00E50035ED8A4D8A047EF03F0D89055
:10066E0002BE4CEF03F0003601360236032E37EF92
:10067E0003F047EF03F0010E0C6E36DD4FEF03F083
:10068E00020E0C6EF0DC4FEF03F0040E0C6E33DD39
:02069E00120048
:1006A0004BC001F0010E006E015004E000360090D6
:1006B000FF0FFBD700C04FF0001C4E6E4D6A49C0C3
:1006C000E9FF4AC0EAFF4C6A4C50070820E34E504D
:1006D000EF16120EE9264E50EF1630DE4F50EF1295
:1006E0002DDE120EE95E4F50EF14006E0CE04CC090
:1006F00001F0010E006E015004E000360090FF0F83
:10070000FBD700504D123FDF3EDF4C2ADDD74DC0F6
:0407100000F01200E3
:10071400240E196E010E1A6E000E1B6E000E1C6E56
:10072400560E1D6E0F0E1E6E000E1F6E000E206EF6
:100734008A0E216E0A0E226E000E236E000E246EA7
:10074400CC0E3D6E090E3E6E490E3F6E000E406E9D
:10075400980E416E0E0E426E490E436E000E446EAC
:10076400940E456E0E0E466E000E476E000E486ED9
:10077400949894968B988B9694889486C79EC79CDD
:06078400380EC66E1200E3
:10078A009A0E396E000E3A6E5A0E3B6E000E3C6E91
:10079A00FF0E2D6EFF0E2E6E000E2F6E000E306EA7
:1007AA00FF0E316EFF0E326E000E336E000E346E87
:1007BA00FF0E356EFF0E366E000E376E000E386E67
:1007CA00AC8A900EAB6E948E949C9EAA03D0AECF48
:0607DA0000F0FBD7120045
:1007E00000C008F00B6A0C6A9E0E036E0A6A026A69
:0C07F000016A006A020E0C6EB0DC120000
:1007FC004BC001F0010E006E015004E00036009079
:10080C00FF0FFBD700C04FF0001E00C04EF049C0D8
:10081C00E9FF4AC0EAFF0050EF16120EE9264D6AB6
:10082C004D50070815E34DC000F04CC001F00050CE
:10083C0004E00132019EFF0FFBD74E50EF1601A0D2
:10084C0002D04F50EF129EDE4F50EF124D2AE8D7D8
:0A085C00120EE95E92DE91DE12003A
:100866004BC001F0010E006E015004E0003600900E
:10087600FF0FFBD700C04DF0001E49C0E9FF4AC07C
:10088600EAFF0050EF16120EE9260050EF1645DE7D
:100896004D50EF12120EE95E78DE4D50EF144C6E9D
:1008A6004C50000A000ED8A4010E4C6E36DE4CC029
:0408B60000F012003C
:1008BA00E80E046E030E056E49C000F04AC001F04E
:1008CA00C7DD000E016EE80E046E030E056E2EDE05
:1008DA000050495C4D6E01504A584E6E4DC049F069
:1008EA004EC04AF0640E046E000E056E4DC000F054
:1008FA004EC001F0ADDD00C04CF0640E0002F3CF33
:10090A0000F0F4CF01F000504D5E01504E5A4DC038
:10091A0049F04EC04AF00A0E046E000E056E4DC034
:10092A0000F04EC001F094DD00C04BF00A0E000248
:10093A00F3CF00F0F4CF01F000504D5C006E01508F
:10094A004E58016E00C049F001C04AF000C053F091
:10095A00546AF6DC030E0C6E970E0D6E0D2EFED742
:10096A000C2EFCD7000000004BC053F0010E546E51
:10097A00E7DC030E0C6E970E0D6E0D2EFED70C2EB5
:10098A00FCD7000000004CC053F0020E546ED8DCB5
:10099A00030E0C6E970E0D6E0D2EFED70C2EFCD785
:1009AA0000000000536A030E546ECADC030E0C6E7C
:1009BA00970E0D6E0D2EFED70C2EFCD700000000F0
:0209CA00120019
:1009CC0015C04BF016C04CF017C04DF018C04EF0CF
:1009DC009E96C5869EB61ED0155016101710181070
:1009EC0018E04B504C104D104E100DE127C0E1FF9C
:1009FC0028C0E2FF030EE66E25C000F026C001F011
:100A0C0086EC00F007D0010E4B5E000E4C5A4D5A8E
:100A1C004E5AE0D7C9CF4AF04950000A02E1C58AC4
:100A2C0001D0C59A9E96C58815C04BF016C04CF0E7
:100A3C0017C04DF018C04EF09EB61ED015501610B3
:100A4C001710181018E04B504C104D104E100DE1B3
:100A5C0027C0E1FF28C0E2FF030EE66E25C000F0C0
:100A6C0026C001F086EC00F007D0010E4B5E000EA4
:0E0A7C004C5A4D5A4E5AE0D74AC000F01200B4
:100A8A0015C049F016C04AF017C04BF018C04CF018
:100A9A00C582C5A21ED0155016101710181018E0DE
:100AAA0049504A104B104C100DE127C0E1FF28C0F5
:100ABA00E2FF060EE66E25C000F026C001F086ECC5
:100ACA0000F007D0010E495E000E4A5A4B5A4C5AA2
:040ADA00E0D712004F
:100ADE000900F5CFE6FF0006FBE10106F9E1120081
:100AEE004C6A49C0E9FF4AC0EAFFEECF4BF04B50CB
:100AFE00000A0EE04BC05AF04DEC00F04C2A4C5060
:100B0E004924E96E000E4A20EA6EEECF4BF0EFD785
:020B1E001200C3
:100B20004F6A506A49C051F04AC052F0800E4A18CC
:100B3000006E800E005C02E1000E495C0BE2010ECB
:100B40004F6E000E506E49500008516E4AC052F070
:100B5000000E525651C053F052C054F04BC055F0E5
:100B60004CC056F01CDD060E4D6E000E4E6E000E93
:100B7000006E4E50005C02E14D50000819E24D50ED
:100B80004B24E16E4E504C20E26E010E4D5C006E27
:100B9000000E4E58016E00504B24E96E01504C205F
:100BA000EA6EEECFE6FF010E4D5E000E4E5ADFD725
:100BB0004BC0E1FF4CC0E2FF200EE66E4F505010DC
:100BC0001AE04D6A4E6A4D504B24E96E4E504C204F
:100BD000EA6EEE50200A03E14D4A4E2AF4D7010E88
:100BE0004D5E000E4E5A4D504B24E16E4E504C203F
:080BF000E26E2D0EE66E12000C
:100BF800020E0B6E040E0C6EBA0E0D6E0D2EFED785
:0C0C08000C2EFCD70B2EFAD700001200B7
:100C14000050086E0150006E016A026A036A0B6A92
:100C24000C6A960E036E0A6A00C001F008C000F058
:080C3400086A026AFADC1200F2
:100C3C000B6A0C6A0A6A0350D8B468EF06F0028E8D
:100C4C008E0E035E03BE30EF06F0D8B430EF06F024
:100C5C006CEF06F0036C080E035CD8A047EF06F0AF
:100C6C00036E013602C001F0026A080E035CD8A0C4
:100C7C0047EF06F00136016A0350D8A4D89051EF23
:100C8C0006F00350D8B451EF06F0D890023201327E
:100C9C00032E4BEF06F00BBC01A05EEF06F0D8A0C4
:100CAC005EEF06F0012AD8B4022A02BE7BEF06F0F2
:100CBC000AAE81EF06F0021E011E012AD8B4022AE8
:100CCC0081EF06F0026A016A81EF06F00B800BAE31
:100CDC0085EF06F0026A0AAE85EF06F0FF0E026E93
:100CEC00016E0A36023285EF06F0010E0C6E9FEC97
:100CFC0000F087EF06F0000E0C6E87EF06F0FF0E8B
:0C0D0C000C6E0150006E0250016E1200CF
:100D18000450000A12E10550000A0FE10650000ACB
:100D28000CE10750000A09E1FF0E006EFF0E016E8C
:100D38007F0E026EFF0E036EA8D0086A096A07507C
:100D4800D8B437EF07F00350D8B43CEF07F002509F
:100D580006180A6E028E068E0E6A02C008F001C0DE
:100D68000CF000C00DF004500D5E0550D8A0053CF5
:100D78000C5E0650D8A0063C085E086A0C6A0D6A2C
:100D8800D8A0CEEF06F0D8900232013200320832F5
:100D9800010E0E6E0750035ED8A0DBEF06F07E0E44
:100DA8000E240326D8B041EF07F0E1EF06F07E0EDF
:100DB8000E240326D8A046EF07F0180E0B6E0D364A
:100DC8000C3608360036013602360E360450005E00
:100DD8000550D8A0053C015E0650D8A0063C025E2E
:100DE80006340E120EA0FCEF06F00D8007EF07F098
:100DF800045000260550D8B0053C01260650D8B04E
:100E0800062802260D900B2EE3EF06F02DEF07F0D3
:100E1800D8900036013602360E360450005E055072
:100E2800D8A0053C015E0650D8A0063C025E0634F8
:100E38000E10010B0D26D8B00C2AD8B4082AD8A455
:100E48002DEF07F008320C320D32032AD8B441EFE7
:100E580007F00AAE089E0850026E0C50016E0D5045
:100E6800006E49EF07F0010EA1EC01F049EF07F021
:100E7800020E7BEC00F049EF07F0040E6FEC00F077
:0C0E880049EF07F0080E3AEC00F01200F1
:040E9400C5841200FF
:100E98009E9649C0C9FF15C04AF016C04BF017C04E
:100EA8004CF018C04DF0C7A420D0155016101710DC
:100EB80018101AE04A504B104C104D100FE127C083
:100EC800E1FF28C0E2FF040EE66E25C000F026C050
:100ED80001F086EC00F0010E006E38D0010E4A5E7B
:100EE800000E4B5A4C5A4D5ADED715C04AF016C060
:100EF8004BF017C04CF018C04DF09EB620D01550DE
:100F08001610171018101AE04A504B104C104D10BC
:100F18000FE127C0E1FF28C0E2FF040EE66E25C0FE
:100F280000F026C001F086EC00F0010E006E0ED035
:100F3800010E4A5E000E4B5A4C5A4D5ADED7C5BCBC
:0E0F480002D0006A03D0C584020E006E1200B3
:100F560015C04BF016C04CF017C04DF018C04EF03F
:100F6600496A4A6A4A50120802E149508E0808E363
:100F760092EC00F0005201E003D0494A4A2AF2D727
:100F8600120E4A5C02E18F0E495C03E37B0E006E93
:100F960024D0C580C5A020D01550161017101810E3
:100FA6001AE04B504C104D104E100FE127C0E1FFD8
:100FB60028C0E2FF050EE66E25C000F026C001F04F
:100FC60086EC00F0010E006E08D0010E4B5E000E9E
:0C0FD6004C5A4D5A4E5ADED7006A1200E9
:100FE200C0EC08F0926A956A96840F01386B396BEF
:100FF2003A6B3C6B140EC86E8AEC03F0B886B06A8A
:10100200CF0EAF6EAC84C5EC03F00D0E5A6E4DECF4
:1010120000F00A0E5A6E4DEC00F0840E496E0F0E6F
:101022004A6E020E4B6E1EDC840E496E0F0E4A6E25
:10103200020E4B6ECC0E4C6EFEEC03F0840E496E2B
:101042000F0E4A6E020E4B6E440E4C6EFEEC03F017
:10105200840E496E0F0E4A6E020E4B6E03DC840E36
:10106200496E0F0E4A6E020E4B6ECC0E4C6EFEECAB
:1010720003F0840E496E0F0E4A6E020E4B6EBE0EC8
:101082004C6EFEEC03F0840E496E0F0E4A6E020E99
:101092004B6E50EC03F0F0EC03F0660E046E660E3D
:1010A200056E660E066E7F0E076E35DEC6DD00C06B
:1010B20029F001C02AF0840E496E0F0E4A6E020E0C
:1010C2004B6E50EC03F000C003F0026A2950022478
:1010D200006E2A500320016E9CDD660E046E660EC1
:1010E200056E660E066E7F0E076E15DEA6DD00C06B
:1010F20029F001C02AF02EDFA20E496ECCDE020ECC
:10110200496EC9DE29C049F0C6DEC3DE74DD22DFC6
:10111200A20E496EC0DE020E496EBDDEB5DCA30E24
:10112200496EB9DE496A51DC00C02BF0000E2C6E0C
:10113200B0DE2BC049F02CC04AF05DEC04F02BC0AD
:1011420049F02CC04AF02BC04BF02CC04CF0E7DC2D
:101152002BC049F02CC04AF0C9DC0B0E0B6E260ED8
:101162000C6E5D0E0D6E0D2EFED70C2EFCD70B2EC7
:0A117200FAD70000000051D7FFD7A4
:1011800010EE15F0040E006E010E016E7C0EF66E70
:0E119000110EF76E000EF86E6FEC05F01200F7
:04117C00000000006F
:020000040030CA
:0D000100231F3CFFBF81FF0FC00FE00F4029
:00000001FF
